{
    "_format": "hh-sol-artifact-1",
    "contractName": "SecureFIRSystem",
    "sourceName": "contracts/SecureFIRSystem.sol",
    "abi": [
        {
            "inputs": [],
            "stateMutability": "nonpayable",
            "type": "constructor"
        },
        {
            "anonymous": false,
            "inputs": [
                {
                    "indexed": true,
                    "internalType": "uint256",
                    "name": "firId",
                    "type": "uint256"
                },
                {
                    "indexed": false,
                    "internalType": "string",
                    "name": "cid",
                    "type": "string"
                }
            ],
            "name": "EvidenceAdded",
            "type": "event"
        },
        {
            "anonymous": false,
            "inputs": [
                {
                    "indexed": true,
                    "internalType": "uint256",
                    "name": "id",
                    "type": "uint256"
                },
                {
                    "indexed": true,
                    "internalType": "address",
                    "name": "officer",
                    "type": "address"
                }
            ],
            "name": "FIRApproved",
            "type": "event"
        },
        {
            "anonymous": false,
            "inputs": [
                {
                    "indexed": true,
                    "internalType": "uint256",
                    "name": "id",
                    "type": "uint256"
                },
                {
                    "indexed": true,
                    "internalType": "address",
                    "name": "officer",
                    "type": "address"
                }
            ],
            "name": "FIRAssigned",
            "type": "event"
        },
        {
            "anonymous": false,
            "inputs": [
                {
                    "indexed": true,
                    "internalType": "uint256",
                    "name": "id",
                    "type": "uint256"
                },
                {
                    "indexed": true,
                    "internalType": "address",
                    "name": "complainant",
                    "type": "address"
                }
            ],
            "name": "FIRCreated",
            "type": "event"
        },
        {
            "anonymous": false,
            "inputs": [
                {
                    "indexed": true,
                    "internalType": "uint256",
                    "name": "id",
                    "type": "uint256"
                }
            ],
            "name": "FIRResolved",
            "type": "event"
        },
        {
            "anonymous": false,
            "inputs": [
                {
                    "indexed": true,
                    "internalType": "uint256",
                    "name": "id",
                    "type": "uint256"
                },
                {
                    "indexed": false,
                    "internalType": "string",
                    "name": "update",
                    "type": "string"
                }
            ],
            "name": "FIRUpdated",
            "type": "event"
        },
        {
            "inputs": [
                {
                    "internalType": "uint256",
                    "name": "firId",
                    "type": "uint256"
                },
                {
                    "internalType": "string",
                    "name": "cid",
                    "type": "string"
                }
            ],
            "name": "addEvidence",
            "outputs": [],
            "stateMutability": "nonpayable",
            "type": "function"
        },
        {
            "inputs": [
                {
                    "internalType": "uint256",
                    "name": "firId",
                    "type": "uint256"
                },
                {
                    "internalType": "string",
                    "name": "update",
                    "type": "string"
                }
            ],
            "name": "addFIRUpdate",
            "outputs": [],
            "stateMutability": "nonpayable",
            "type": "function"
        },
        {
            "inputs": [
                {
                    "internalType": "address",
                    "name": "officer",
                    "type": "address"
                }
            ],
            "name": "addPoliceOfficer",
            "outputs": [],
            "stateMutability": "nonpayable",
            "type": "function"
        },
        {
            "inputs": [
                {
                    "internalType": "uint256",
                    "name": "firId",
                    "type": "uint256"
                }
            ],
            "name": "approveFIR",
            "outputs": [],
            "stateMutability": "nonpayable",
            "type": "function"
        },
        {
            "inputs": [
                {
                    "internalType": "uint256",
                    "name": "firId",
                    "type": "uint256"
                },
                {
                    "internalType": "address",
                    "name": "officer",
                    "type": "address"
                }
            ],
            "name": "assignOfficerToFIR",
            "outputs": [],
            "stateMutability": "nonpayable",
            "type": "function"
        },
        {
            "inputs": [
                {
                    "internalType": "string",
                    "name": "_title",
                    "type": "string"
                },
                {
                    "internalType": "string",
                    "name": "_description",
                    "type": "string"
                },
                {
                    "internalType": "string",
                    "name": "_complainantName",
                    "type": "string"
                },
                {
                    "internalType": "string",
                    "name": "_complainantContact",
                    "type": "string"
                },
                {
                    "internalType": "uint256",
                    "name": "_incidentDate",
                    "type": "uint256"
                },
                {
                    "internalType": "string",
                    "name": "_incidentLocation",
                    "type": "string"
                },
                {
                    "internalType": "string",
                    "name": "_category",
                    "type": "string"
                },
                {
                    "internalType": "bool",
                    "name": "_includeComplainantAccess",
                    "type": "bool"
                },
                {
                    "internalType": "string[]",
                    "name": "_evidenceCids",
                    "type": "string[]"
                }
            ],
            "name": "createFIR",
            "outputs": [],
            "stateMutability": "nonpayable",
            "type": "function"
        },
        {
            "inputs": [
                {
                    "internalType": "uint256",
                    "name": "firId",
                    "type": "uint256"
                }
            ],
            "name": "getFIRDetails",
            "outputs": [
                {
                    "internalType": "string",
                    "name": "title",
                    "type": "string"
                },
                {
                    "internalType": "string",
                    "name": "status",
                    "type": "string"
                },
                {
                    "internalType": "address",
                    "name": "assignedOfficer",
                    "type": "address"
                },
                {
                    "internalType": "string[]",
                    "name": "updates",
                    "type": "string[]"
                }
            ],
            "stateMutability": "view",
            "type": "function"
        },
        {
            "inputs": [
                {
                    "internalType": "uint256",
                    "name": "firId",
                    "type": "uint256"
                }
            ],
            "name": "getSensitiveFIRDetails",
            "outputs": [
                {
                    "internalType": "string",
                    "name": "description",
                    "type": "string"
                },
                {
                    "internalType": "string",
                    "name": "complainantName",
                    "type": "string"
                },
                {
                    "internalType": "string",
                    "name": "complainantContact",
                    "type": "string"
                },
                {
                    "internalType": "string",
                    "name": "incidentLocation",
                    "type": "string"
                },
                {
                    "internalType": "string",
                    "name": "category",
                    "type": "string"
                },
                {
                    "internalType": "string[]",
                    "name": "evidenceCids",
                    "type": "string[]"
                }
            ],
            "stateMutability": "view",
            "type": "function"
        },
        {
            "inputs": [],
            "name": "owner",
            "outputs": [
                {
                    "internalType": "address",
                    "name": "",
                    "type": "address"
                }
            ],
            "stateMutability": "view",
            "type": "function"
        },
        {
            "inputs": [
                {
                    "internalType": "address",
                    "name": "",
                    "type": "address"
                }
            ],
            "name": "policeOfficers",
            "outputs": [
                {
                    "internalType": "bool",
                    "name": "",
                    "type": "bool"
                }
            ],
            "stateMutability": "view",
            "type": "function"
        },
        {
            "inputs": [
                {
                    "internalType": "address",
                    "name": "officer",
                    "type": "address"
                }
            ],
            "name": "removePoliceOfficer",
            "outputs": [],
            "stateMutability": "nonpayable",
            "type": "function"
        },
        {
            "inputs": [
                {
                    "internalType": "uint256",
                    "name": "firId",
                    "type": "uint256"
                }
            ],
            "name": "resolveFIR",
            "outputs": [],
            "stateMutability": "nonpayable",
            "type": "function"
        }
    ],
    "bytecode": "0x60806040526001600355348015601457600080fd5b50336000806101000a81548173ffffffffffffffffffffffffffffffffffffffff021916908373ffffffffffffffffffffffffffffffffffffffff160217905550612932806100646000396000f3fe608060405234801561001057600080fd5b50600436106100b45760003560e01c80638da5cb5b116100715780638da5cb5b14610178578063adabfb9814610196578063b1e58b15146101c6578063bd1b44ea146101e2578063c7dbfdb2146101fe578063df25468614610233576100b4565b8063029e1b14146100b957806319639fbb146100d55780631c3665eb146100f157806338fe1e111461010d5780633f2f3f3e14610140578063603c3bef1461015c575b600080fd5b6100d360048036038101906100ce919061190c565b61024f565b005b6100ef60048036038101906100ea9190611997565b6104bf565b005b61010b60048036038101906101069190611b0a565b6105a8565b005b6101276004803603810190610122919061190c565b610714565b6040516101379493929190611d00565b60405180910390f35b61015a60048036038101906101559190611e78565b6109a9565b005b61017660048036038101906101719190611997565b610c5d565b005b610180610d46565b60405161018d9190612006565b60405180910390f35b6101b060048036038101906101ab9190611997565b610d6a565b6040516101bd9190612030565b60405180910390f35b6101e060048036038101906101db919061190c565b610d8a565b005b6101fc60048036038101906101f79190611b0a565b610f69565b005b6102186004803603810190610213919061190c565b611091565b60405161022a9695949392919061204b565b60405180910390f35b61024d600480360381019061024891906120d6565b6114b9565b005b600260003373ffffffffffffffffffffffffffffffffffffffff1673ffffffffffffffffffffffffffffffffffffffff16815260200190815260200160002060009054906101000a900460ff166102db576040517f08c379a00000000000000000000000000000000000000000000000000000000081526004016102d290612162565b60405180910390fd5b60006001600083815260200190815260200160002090506040518060400160405280600f81526020017f50656e64696e67417070726f76616c000000000000000000000000000000000081525080519060200120816008016040516103409190612285565b604051809103902014610388576040517f08c379a000000000000000000000000000000000000000000000000000000000815260040161037f9061230e565b60405180910390fd5b6040518060400160405280600a81526020017f52656769737465726564000000000000000000000000000000000000000000008152508160080190816103ce91906124da565b503381600a0160006101000a81548173ffffffffffffffffffffffffffffffffffffffff021916908373ffffffffffffffffffffffffffffffffffffffff16021790555080600d01339080600181540180825580915050600190039060005260206000200160009091909190916101000a81548173ffffffffffffffffffffffffffffffffffffffff021916908373ffffffffffffffffffffffffffffffffffffffff1602179055503373ffffffffffffffffffffffffffffffffffffffff16827f23ab93bc0c1b155f11b50ebb8bf033cbb4dce94554d547f8b87d5b896befd33a60405160405180910390a35050565b60008054906101000a900473ffffffffffffffffffffffffffffffffffffffff1673ffffffffffffffffffffffffffffffffffffffff163373ffffffffffffffffffffffffffffffffffffffff161461054d576040517f08c379a0000000000000000000000000000000000000000000000000000000008152600401610544906125f8565b60405180910390fd5b6000600260008373ffffffffffffffffffffffffffffffffffffffff1673ffffffffffffffffffffffffffffffffffffffff16815260200190815260200160002060006101000a81548160ff02191690831515021790555050565b816105b38133611726565b6105f2576040517f08c379a00000000000000000000000000000000000000000000000000000000081526004016105e990612664565b60405180910390fd5b6000825111610636576040517f08c379a000000000000000000000000000000000000000000000000000000000815260040161062d906126d0565b60405180910390fd5b600060016000858152602001908152602001600020905080600a0160149054906101000a900460ff161561069f576040517f08c379a00000000000000000000000000000000000000000000000000000000081526004016106969061273c565b60405180910390fd5b80600c01839080600181540180825580915050600190039060005260206000200160009091909190915090816106d591906124da565b50837f09947d17be118669e63f4d9db1a748fae99ea74c5cbd9869ea3989b25a6098f284604051610706919061275c565b60405180910390a250505050565b60608060006060846107268133611726565b610765576040517f08c379a000000000000000000000000000000000000000000000000000000000815260040161075c90612664565b60405180910390fd5b6000600160008881526020019081526020016000209050806001018160080182600a0160009054906101000a900473ffffffffffffffffffffffffffffffffffffffff1683600b018380546107b9906121b1565b80601f01602080910402602001604051908101604052809291908181526020018280546107e5906121b1565b80156108325780601f1061080757610100808354040283529160200191610832565b820191906000526020600020905b81548152906001019060200180831161081557829003601f168201915b50505050509350828054610845906121b1565b80601f0160208091040260200160405190810160405280929190818152602001828054610871906121b1565b80156108be5780601f10610893576101008083540402835291602001916108be565b820191906000526020600020905b8154815290600101906020018083116108a157829003601f168201915b5050505050925080805480602002602001604051908101604052809291908181526020016000905b82821015610992578382906000526020600020018054610905906121b1565b80601f0160208091040260200160405190810160405280929190818152602001828054610931906121b1565b801561097e5780601f106109535761010080835404028352916020019161097e565b820191906000526020600020905b81548152906001019060200180831161096157829003601f168201915b5050505050815260200190600101906108e6565b505050509050955095509550955050509193509193565b600060016000600354815260200190815260200160002090506003548160000181905550898160010190816109de91906124da565b50888160020190816109f091906124da565b5087816003019081610a0291906124da565b5086816004019081610a1491906124da565b5085816005018190555084816006019081610a2f91906124da565b5083816007019081610a4191906124da565b506040518060400160405280600f81526020017f50656e64696e67417070726f76616c0000000000000000000000000000000000815250816008019081610a8891906124da565b50338160090160006101000a81548173ffffffffffffffffffffffffffffffffffffffff021916908373ffffffffffffffffffffffffffffffffffffffff160217905550600081600a0160146101000a81548160ff0219169083151502179055508181600c019080519060200190610b019291906117e8565b5080600d0160008054906101000a900473ffffffffffffffffffffffffffffffffffffffff169080600181540180825580915050600190039060005260206000200160009091909190916101000a81548173ffffffffffffffffffffffffffffffffffffffff021916908373ffffffffffffffffffffffffffffffffffffffff1602179055508215610bf35780600d01339080600181540180825580915050600190039060005260206000200160009091909190916101000a81548173ffffffffffffffffffffffffffffffffffffffff021916908373ffffffffffffffffffffffffffffffffffffffff1602179055505b3373ffffffffffffffffffffffffffffffffffffffff166003547f2437fa90b3a3463b16b51f891b6b48eb7b059e6f9af210d3159fa959d3de08db60405160405180910390a360036000815480929190610c4c906127ad565b919050555050505050505050505050565b60008054906101000a900473ffffffffffffffffffffffffffffffffffffffff1673ffffffffffffffffffffffffffffffffffffffff163373ffffffffffffffffffffffffffffffffffffffff1614610ceb576040517f08c379a0000000000000000000000000000000000000000000000000000000008152600401610ce2906125f8565b60405180910390fd5b6001600260008373ffffffffffffffffffffffffffffffffffffffff1673ffffffffffffffffffffffffffffffffffffffff16815260200190815260200160002060006101000a81548160ff02191690831515021790555050565b60008054906101000a900473ffffffffffffffffffffffffffffffffffffffff1681565b60026020528060005260406000206000915054906101000a900460ff1681565b80610d958133611726565b610dd4576040517f08c379a0000000000000000000000000000000000000000000000000000000008152600401610dcb90612664565b60405180910390fd5b60006001600084815260200190815260200160002090503373ffffffffffffffffffffffffffffffffffffffff1681600a0160009054906101000a900473ffffffffffffffffffffffffffffffffffffffff1673ffffffffffffffffffffffffffffffffffffffff161480610e94575060008054906101000a900473ffffffffffffffffffffffffffffffffffffffff1673ffffffffffffffffffffffffffffffffffffffff163373ffffffffffffffffffffffffffffffffffffffff16145b610ed3576040517f08c379a0000000000000000000000000000000000000000000000000000000008152600401610eca90612841565b60405180910390fd5b600181600a0160146101000a81548160ff0219169083151502179055506040518060400160405280600881526020017f5265736f6c766564000000000000000000000000000000000000000000000000815250816008019081610f3691906124da565b50827fc8ee4ada39b8d921795aec8d46ee81ebba8e30df0adec8a21994ba08f1e67dac60405160405180910390a2505050565b81610f748133611726565b610fb3576040517f08c379a0000000000000000000000000000000000000000000000000000000008152600401610faa90612664565b60405180910390fd5b600060016000858152602001908152602001600020905080600a0160149054906101000a900460ff161561101c576040517f08c379a00000000000000000000000000000000000000000000000000000000081526004016110139061273c565b60405180910390fd5b80600b018390806001815401808255809150506001900390600052602060002001600090919091909150908161105291906124da565b50837fc06596f056a8ebd81203b2c15941aacc146f5713cb4f9637ffa43cba9f6aec8e84604051611083919061275c565b60405180910390a250505050565b606080606080606080866110a58133611726565b6110e4576040517f08c379a00000000000000000000000000000000000000000000000000000000081526004016110db90612664565b60405180910390fd5b6000600160008a81526020019081526020016000209050806002018160030182600401836006018460070185600c0185805461111f906121b1565b80601f016020809104026020016040519081016040528092919081815260200182805461114b906121b1565b80156111985780601f1061116d57610100808354040283529160200191611198565b820191906000526020600020905b81548152906001019060200180831161117b57829003601f168201915b505050505095508480546111ab906121b1565b80601f01602080910402602001604051908101604052809291908181526020018280546111d7906121b1565b80156112245780601f106111f957610100808354040283529160200191611224565b820191906000526020600020905b81548152906001019060200180831161120757829003601f168201915b50505050509450838054611237906121b1565b80601f0160208091040260200160405190810160405280929190818152602001828054611263906121b1565b80156112b05780601f10611285576101008083540402835291602001916112b0565b820191906000526020600020905b81548152906001019060200180831161129357829003601f168201915b505050505093508280546112c3906121b1565b80601f01602080910402602001604051908101604052809291908181526020018280546112ef906121b1565b801561133c5780601f106113115761010080835404028352916020019161133c565b820191906000526020600020905b81548152906001019060200180831161131f57829003601f168201915b5050505050925081805461134f906121b1565b80601f016020809104026020016040519081016040528092919081815260200182805461137b906121b1565b80156113c85780601f1061139d576101008083540402835291602001916113c8565b820191906000526020600020905b8154815290600101906020018083116113ab57829003601f168201915b5050505050915080805480602002602001604051908101604052809291908181526020016000905b8282101561149c57838290600052602060002001805461140f906121b1565b80601f016020809104026020016040519081016040528092919081815260200182805461143b906121b1565b80156114885780601f1061145d57610100808354040283529160200191611488565b820191906000526020600020905b81548152906001019060200180831161146b57829003601f168201915b5050505050815260200190600101906113f0565b505050509050975097509750975097509750505091939550919395565b60008054906101000a900473ffffffffffffffffffffffffffffffffffffffff1673ffffffffffffffffffffffffffffffffffffffff163373ffffffffffffffffffffffffffffffffffffffff1614611547576040517f08c379a000000000000000000000000000000000000000000000000000000000815260040161153e906125f8565b60405180910390fd5b816115528133611726565b611591576040517f08c379a000000000000000000000000000000000000000000000000000000000815260040161158890612664565b60405180910390fd5b600260008373ffffffffffffffffffffffffffffffffffffffff1673ffffffffffffffffffffffffffffffffffffffff16815260200190815260200160002060009054906101000a900460ff1661161d576040517f08c379a0000000000000000000000000000000000000000000000000000000008152600401611614906128ad565b60405180910390fd5b60006001600085815260200190815260200160002090508281600a0160006101000a81548173ffffffffffffffffffffffffffffffffffffffff021916908373ffffffffffffffffffffffffffffffffffffffff16021790555080600d01839080600181540180825580915050600190039060005260206000200160009091909190916101000a81548173ffffffffffffffffffffffffffffffffffffffff021916908373ffffffffffffffffffffffffffffffffffffffff1602179055508273ffffffffffffffffffffffffffffffffffffffff16847fa07f98f4674c3ba0a1e094dc52fec92931baa26493fd1c00c406952239d7ae5e60405160405180910390a350505050565b60008060016000858152602001908152602001600020905060005b81600d01805490508110156117db578373ffffffffffffffffffffffffffffffffffffffff1682600d01828154811061177d5761177c6128cd565b5b9060005260206000200160009054906101000a900473ffffffffffffffffffffffffffffffffffffffff1673ffffffffffffffffffffffffffffffffffffffff16036117ce576001925050506117e2565b8080600101915050611741565b5060009150505b92915050565b828054828255906000526020600020908101928215611830579160200282015b8281111561182f57825182908161181f91906124da565b5091602001919060010190611808565b5b50905061183d9190611841565b5090565b5b8082111561186157600081816118589190611865565b50600101611842565b5090565b508054611871906121b1565b6000825580601f1061188357506118a2565b601f0160209004906000526020600020908101906118a191906118a5565b5b50565b5b808211156118be5760008160009055506001016118a6565b5090565b6000604051905090565b600080fd5b600080fd5b6000819050919050565b6118e9816118d6565b81146118f457600080fd5b50565b600081359050611906816118e0565b92915050565b600060208284031215611922576119216118cc565b5b6000611930848285016118f7565b91505092915050565b600073ffffffffffffffffffffffffffffffffffffffff82169050919050565b600061196482611939565b9050919050565b61197481611959565b811461197f57600080fd5b50565b6000813590506119918161196b565b92915050565b6000602082840312156119ad576119ac6118cc565b5b60006119bb84828501611982565b91505092915050565b600080fd5b600080fd5b6000601f19601f8301169050919050565b7f4e487b7100000000000000000000000000000000000000000000000000000000600052604160045260246000fd5b611a17826119ce565b810181811067ffffffffffffffff82111715611a3657611a356119df565b5b80604052505050565b6000611a496118c2565b9050611a558282611a0e565b919050565b600067ffffffffffffffff821115611a7557611a746119df565b5b611a7e826119ce565b9050602081019050919050565b82818337600083830152505050565b6000611aad611aa884611a5a565b611a3f565b905082815260208101848484011115611ac957611ac86119c9565b5b611ad4848285611a8b565b509392505050565b600082601f830112611af157611af06119c4565b5b8135611b01848260208601611a9a565b91505092915050565b60008060408385031215611b2157611b206118cc565b5b6000611b2f858286016118f7565b925050602083013567ffffffffffffffff811115611b5057611b4f6118d1565b5b611b5c85828601611adc565b9150509250929050565b600081519050919050565b600082825260208201905092915050565b60005b83811015611ba0578082015181840152602081019050611b85565b60008484015250505050565b6000611bb782611b66565b611bc18185611b71565b9350611bd1818560208601611b82565b611bda816119ce565b840191505092915050565b611bee81611959565b82525050565b600081519050919050565b600082825260208201905092915050565b6000819050602082019050919050565b600082825260208201905092915050565b6000611c3c82611b66565b611c468185611c20565b9350611c56818560208601611b82565b611c5f816119ce565b840191505092915050565b6000611c768383611c31565b905092915050565b6000602082019050919050565b6000611c9682611bf4565b611ca08185611bff565b935083602082028501611cb285611c10565b8060005b85811015611cee5784840389528151611ccf8582611c6a565b9450611cda83611c7e565b925060208a01995050600181019050611cb6565b50829750879550505050505092915050565b60006080820190508181036000830152611d1a8187611bac565b90508181036020830152611d2e8186611bac565b9050611d3d6040830185611be5565b8181036060830152611d4f8184611c8b565b905095945050505050565b60008115159050919050565b611d6f81611d5a565b8114611d7a57600080fd5b50565b600081359050611d8c81611d66565b92915050565b600067ffffffffffffffff821115611dad57611dac6119df565b5b602082029050602081019050919050565b600080fd5b6000611dd6611dd184611d92565b611a3f565b90508083825260208201905060208402830185811115611df957611df8611dbe565b5b835b81811015611e4057803567ffffffffffffffff811115611e1e57611e1d6119c4565b5b808601611e2b8982611adc565b85526020850194505050602081019050611dfb565b5050509392505050565b600082601f830112611e5f57611e5e6119c4565b5b8135611e6f848260208601611dc3565b91505092915050565b60008060008060008060008060006101208a8c031215611e9b57611e9a6118cc565b5b60008a013567ffffffffffffffff811115611eb957611eb86118d1565b5b611ec58c828d01611adc565b99505060208a013567ffffffffffffffff811115611ee657611ee56118d1565b5b611ef28c828d01611adc565b98505060408a013567ffffffffffffffff811115611f1357611f126118d1565b5b611f1f8c828d01611adc565b97505060608a013567ffffffffffffffff811115611f4057611f3f6118d1565b5b611f4c8c828d01611adc565b9650506080611f5d8c828d016118f7565b95505060a08a013567ffffffffffffffff811115611f7e57611f7d6118d1565b5b611f8a8c828d01611adc565b94505060c08a013567ffffffffffffffff811115611fab57611faa6118d1565b5b611fb78c828d01611adc565b93505060e0611fc88c828d01611d7d565b9250506101008a013567ffffffffffffffff811115611fea57611fe96118d1565b5b611ff68c828d01611e4a565b9150509295985092959850929598565b600060208201905061201b6000830184611be5565b92915050565b61202a81611d5a565b82525050565b60006020820190506120456000830184612021565b92915050565b600060c08201905081810360008301526120658189611bac565b905081810360208301526120798188611bac565b9050818103604083015261208d8187611bac565b905081810360608301526120a18186611bac565b905081810360808301526120b58185611bac565b905081810360a08301526120c98184611c8b565b9050979650505050505050565b600080604083850312156120ed576120ec6118cc565b5b60006120fb858286016118f7565b925050602061210c85828601611982565b9150509250929050565b7f4e6f7420617574686f72697a6564206f66666963657200000000000000000000600082015250565b600061214c601683611b71565b915061215782612116565b602082019050919050565b6000602082019050818103600083015261217b8161213f565b9050919050565b7f4e487b7100000000000000000000000000000000000000000000000000000000600052602260045260246000fd5b600060028204905060018216806121c957607f821691505b6020821081036121dc576121db612182565b5b50919050565b600081905092915050565b60008190508160005260206000209050919050565b6000815461220f816121b1565b61221981866121e2565b9450600182166000811461223457600181146122495761227c565b60ff198316865281151582028601935061227c565b612252856121ed565b60005b8381101561227457815481890152600182019150602081019050612255565b838801955050505b50505092915050565b60006122918284612202565b915081905092915050565b7f46495220616c726561647920617070726f766564206f7220696e76616c69642060008201527f7374617475730000000000000000000000000000000000000000000000000000602082015250565b60006122f8602683611b71565b91506123038261229c565b604082019050919050565b60006020820190508181036000830152612327816122eb565b9050919050565b60008190508160005260206000209050919050565b60006020601f8301049050919050565b600082821b905092915050565b6000600883026123907fffffffffffffffffffffffffffffffffffffffffffffffffffffffffffffffff82612353565b61239a8683612353565b95508019841693508086168417925050509392505050565b6000819050919050565b60006123d76123d26123cd846118d6565b6123b2565b6118d6565b9050919050565b6000819050919050565b6123f1836123bc565b6124056123fd826123de565b848454612360565b825550505050565b600090565b61241a61240d565b6124258184846123e8565b505050565b5b818110156124495761243e600082612412565b60018101905061242b565b5050565b601f82111561248e5761245f8161232e565b61246884612343565b81016020851015612477578190505b61248b61248385612343565b83018261242a565b50505b505050565b600082821c905092915050565b60006124b160001984600802612493565b1980831691505092915050565b60006124ca83836124a0565b9150826002028217905092915050565b6124e382611b66565b67ffffffffffffffff8111156124fc576124fb6119df565b5b61250682546121b1565b61251182828561244d565b600060209050601f8311600181146125445760008415612532578287015190505b61253c85826124be565b8655506125a4565b601f1984166125528661232e565b60005b8281101561257a57848901518255600182019150602085019450602081019050612555565b868310156125975784890151612593601f8916826124a0565b8355505b6001600288020188555050505b505050505050565b7f4e6f74206f776e65720000000000000000000000000000000000000000000000600082015250565b60006125e2600983611b71565b91506125ed826125ac565b602082019050919050565b60006020820190508181036000830152612611816125d5565b9050919050565b7f556e617574686f72697a65642061636365737300000000000000000000000000600082015250565b600061264e601383611b71565b915061265982612618565b602082019050919050565b6000602082019050818103600083015261267d81612641565b9050919050565b7f496e76616c696420434944000000000000000000000000000000000000000000600082015250565b60006126ba600b83611b71565b91506126c582612684565b602082019050919050565b600060208201905081810360008301526126e9816126ad565b9050919050565b7f464952206973207265736f6c7665640000000000000000000000000000000000600082015250565b6000612726600f83611b71565b9150612731826126f0565b602082019050919050565b6000602082019050818103600083015261275581612719565b9050919050565b600060208201905081810360008301526127768184611bac565b905092915050565b7f4e487b7100000000000000000000000000000000000000000000000000000000600052601160045260246000fd5b60006127b8826118d6565b91507fffffffffffffffffffffffffffffffffffffffffffffffffffffffffffffffff82036127ea576127e961277e565b5b600182019050919050565b7f556e617574686f72697a65640000000000000000000000000000000000000000600082015250565b600061282b600c83611b71565b9150612836826127f5565b602082019050919050565b6000602082019050818103600083015261285a8161281e565b9050919050565b7f496e76616c696420706f6c696365206f66666963657200000000000000000000600082015250565b6000612897601683611b71565b91506128a282612861565b602082019050919050565b600060208201905081810360008301526128c68161288a565b9050919050565b7f4e487b7100000000000000000000000000000000000000000000000000000000600052603260045260246000fdfea264697066735822122084a5bd04753185fae0a9742dd255e0a8f7af71c65f7d5ac3789cf6bdc786023064736f6c634300081c0033",
    "linkReferences": {},
    "deployedLinkReferences": {}
}